{
    "contractName": "TimelessTokens2",
    "abi": [
        {
            "inputs": [
                {
                    "internalType": "address",
                    "name": "target",
                    "type": "address"
                }
            ],
            "name": "AddressEmptyCode",
            "type": "error"
        },
        {
            "inputs": [
                {
                    "internalType": "address",
                    "name": "implementation",
                    "type": "address"
                }
            ],
            "name": "ERC1967InvalidImplementation",
            "type": "error"
        },
        {
            "inputs": [],
            "name": "ERC1967NonPayable",
            "type": "error"
        },
        {
            "inputs": [],
            "name": "ERC721EnumerableForbiddenBatchMint",
            "type": "error"
        },
        {
            "inputs": [
                {
                    "internalType": "address",
                    "name": "sender",
                    "type": "address"
                },
                {
                    "internalType": "uint256",
                    "name": "tokenId",
                    "type": "uint256"
                },
                {
                    "internalType": "address",
                    "name": "owner",
                    "type": "address"
                }
            ],
            "name": "ERC721IncorrectOwner",
            "type": "error"
        },
        {
            "inputs": [
                {
                    "internalType": "address",
                    "name": "operator",
                    "type": "address"
                },
                {
                    "internalType": "uint256",
                    "name": "tokenId",
                    "type": "uint256"
                }
            ],
            "name": "ERC721InsufficientApproval",
            "type": "error"
        },
        {
            "inputs": [
                {
                    "internalType": "address",
                    "name": "approver",
                    "type": "address"
                }
            ],
            "name": "ERC721InvalidApprover",
            "type": "error"
        },
        {
            "inputs": [
                {
                    "internalType": "address",
                    "name": "operator",
                    "type": "address"
                }
            ],
            "name": "ERC721InvalidOperator",
            "type": "error"
        },
        {
            "inputs": [
                {
                    "internalType": "address",
                    "name": "owner",
                    "type": "address"
                }
            ],
            "name": "ERC721InvalidOwner",
            "type": "error"
        },
        {
            "inputs": [
                {
                    "internalType": "address",
                    "name": "receiver",
                    "type": "address"
                }
            ],
            "name": "ERC721InvalidReceiver",
            "type": "error"
        },
        {
            "inputs": [
                {
                    "internalType": "address",
                    "name": "sender",
                    "type": "address"
                }
            ],
            "name": "ERC721InvalidSender",
            "type": "error"
        },
        {
            "inputs": [
                {
                    "internalType": "uint256",
                    "name": "tokenId",
                    "type": "uint256"
                }
            ],
            "name": "ERC721NonexistentToken",
            "type": "error"
        },
        {
            "inputs": [
                {
                    "internalType": "address",
                    "name": "owner",
                    "type": "address"
                },
                {
                    "internalType": "uint256",
                    "name": "index",
                    "type": "uint256"
                }
            ],
            "name": "ERC721OutOfBoundsIndex",
            "type": "error"
        },
        {
            "inputs": [],
            "name": "FailedInnerCall",
            "type": "error"
        },
        {
            "inputs": [],
            "name": "InvalidInitialization",
            "type": "error"
        },
        {
            "inputs": [],
            "name": "NotInitializing",
            "type": "error"
        },
        {
            "inputs": [
                {
                    "internalType": "address",
                    "name": "owner",
                    "type": "address"
                }
            ],
            "name": "OwnableInvalidOwner",
            "type": "error"
        },
        {
            "inputs": [
                {
                    "internalType": "address",
                    "name": "account",
                    "type": "address"
                }
            ],
            "name": "OwnableUnauthorizedAccount",
            "type": "error"
        },
        {
            "inputs": [],
            "name": "UUPSUnauthorizedCallContext",
            "type": "error"
        },
        {
            "inputs": [
                {
                    "internalType": "bytes32",
                    "name": "slot",
                    "type": "bytes32"
                }
            ],
            "name": "UUPSUnsupportedProxiableUUID",
            "type": "error"
        },
        {
            "anonymous": false,
            "inputs": [
                {
                    "indexed": true,
                    "internalType": "address",
                    "name": "owner",
                    "type": "address"
                },
                {
                    "indexed": true,
                    "internalType": "address",
                    "name": "approved",
                    "type": "address"
                },
                {
                    "indexed": true,
                    "internalType": "uint256",
                    "name": "tokenId",
                    "type": "uint256"
                }
            ],
            "name": "Approval",
            "type": "event"
        },
        {
            "anonymous": false,
            "inputs": [
                {
                    "indexed": true,
                    "internalType": "address",
                    "name": "owner",
                    "type": "address"
                },
                {
                    "indexed": true,
                    "internalType": "address",
                    "name": "operator",
                    "type": "address"
                },
                {
                    "indexed": false,
                    "internalType": "bool",
                    "name": "approved",
                    "type": "bool"
                }
            ],
            "name": "ApprovalForAll",
            "type": "event"
        },
        {
            "anonymous": false,
            "inputs": [
                {
                    "indexed": false,
                    "internalType": "uint64",
                    "name": "version",
                    "type": "uint64"
                }
            ],
            "name": "Initialized",
            "type": "event"
        },
        {
            "anonymous": false,
            "inputs": [
                {
                    "indexed": true,
                    "internalType": "address",
                    "name": "previousOwner",
                    "type": "address"
                },
                {
                    "indexed": true,
                    "internalType": "address",
                    "name": "newOwner",
                    "type": "address"
                }
            ],
            "name": "OwnershipTransferred",
            "type": "event"
        },
        {
            "anonymous": false,
            "inputs": [
                {
                    "indexed": false,
                    "internalType": "uint256",
                    "name": "id",
                    "type": "uint256"
                },
                {
                    "indexed": true,
                    "internalType": "address",
                    "name": "owner",
                    "type": "address"
                },
                {
                    "indexed": false,
                    "internalType": "uint256",
                    "name": "cost",
                    "type": "uint256"
                },
                {
                    "indexed": false,
                    "internalType": "string",
                    "name": "metadataURI",
                    "type": "string"
                },
                {
                    "indexed": false,
                    "internalType": "uint256",
                    "name": "timestamp",
                    "type": "uint256"
                }
            ],
            "name": "Sale",
            "type": "event"
        },
        {
            "anonymous": false,
            "inputs": [
                {
                    "indexed": true,
                    "internalType": "address",
                    "name": "from",
                    "type": "address"
                },
                {
                    "indexed": true,
                    "internalType": "address",
                    "name": "to",
                    "type": "address"
                },
                {
                    "indexed": true,
                    "internalType": "uint256",
                    "name": "tokenId",
                    "type": "uint256"
                }
            ],
            "name": "Transfer",
            "type": "event"
        },
        {
            "anonymous": false,
            "inputs": [
                {
                    "indexed": true,
                    "internalType": "address",
                    "name": "implementation",
                    "type": "address"
                }
            ],
            "name": "Upgraded",
            "type": "event"
        },
        {
            "inputs": [],
            "name": "UPGRADE_INTERFACE_VERSION",
            "outputs": [
                {
                    "internalType": "string",
                    "name": "",
                    "type": "string"
                }
            ],
            "stateMutability": "view",
            "type": "function"
        },
        {
            "inputs": [
                {
                    "internalType": "address",
                    "name": "to",
                    "type": "address"
                },
                {
                    "internalType": "uint256",
                    "name": "tokenId",
                    "type": "uint256"
                }
            ],
            "name": "approve",
            "outputs": [],
            "stateMutability": "nonpayable",
            "type": "function"
        },
        {
            "inputs": [],
            "name": "artist",
            "outputs": [
                {
                    "internalType": "address",
                    "name": "",
                    "type": "address"
                }
            ],
            "stateMutability": "view",
            "type": "function"
        },
        {
            "inputs": [
                {
                    "internalType": "address",
                    "name": "owner",
                    "type": "address"
                }
            ],
            "name": "balanceOf",
            "outputs": [
                {
                    "internalType": "uint256",
                    "name": "",
                    "type": "uint256"
                }
            ],
            "stateMutability": "view",
            "type": "function"
        },
        {
            "inputs": [
                {
                    "internalType": "uint256",
                    "name": "id",
                    "type": "uint256"
                },
                {
                    "internalType": "uint256",
                    "name": "newPrice",
                    "type": "uint256"
                }
            ],
            "name": "changePrice",
            "outputs": [
                {
                    "internalType": "bool",
                    "name": "",
                    "type": "bool"
                }
            ],
            "stateMutability": "nonpayable",
            "type": "function"
        },
        {
            "inputs": [
                {
                    "internalType": "uint256[]",
                    "name": "id",
                    "type": "uint256[]"
                },
                {
                    "internalType": "string[]",
                    "name": "metadataURI",
                    "type": "string[]"
                }
            ],
            "name": "executeMintByOwner",
            "outputs": [],
            "stateMutability": "nonpayable",
            "type": "function"
        },
        {
            "inputs": [],
            "name": "executionFee",
            "outputs": [
                {
                    "internalType": "uint256",
                    "name": "",
                    "type": "uint256"
                }
            ],
            "stateMutability": "view",
            "type": "function"
        },
        {
            "inputs": [],
            "name": "getAllNFTs",
            "outputs": [
                {
                    "components": [
                        {
                            "internalType": "uint256",
                            "name": "id",
                            "type": "uint256"
                        },
                        {
                            "internalType": "address",
                            "name": "owner",
                            "type": "address"
                        },
                        {
                            "internalType": "uint256",
                            "name": "cost",
                            "type": "uint256"
                        },
                        {
                            "internalType": "string",
                            "name": "title",
                            "type": "string"
                        },
                        {
                            "internalType": "string",
                            "name": "description",
                            "type": "string"
                        },
                        {
                            "internalType": "string",
                            "name": "metadataURI",
                            "type": "string"
                        },
                        {
                            "internalType": "uint256",
                            "name": "timestamp",
                            "type": "uint256"
                        }
                    ],
                    "internalType": "struct TimelessTokens2.NFTStruct[]",
                    "name": "",
                    "type": "tuple[]"
                }
            ],
            "stateMutability": "view",
            "type": "function"
        },
        {
            "inputs": [],
            "name": "getAllToBeReviewLists",
            "outputs": [
                {
                    "components": [
                        {
                            "internalType": "uint256",
                            "name": "id",
                            "type": "uint256"
                        },
                        {
                            "internalType": "address",
                            "name": "owner",
                            "type": "address"
                        },
                        {
                            "internalType": "uint256",
                            "name": "cost",
                            "type": "uint256"
                        },
                        {
                            "internalType": "string",
                            "name": "title",
                            "type": "string"
                        },
                        {
                            "internalType": "string",
                            "name": "description",
                            "type": "string"
                        },
                        {
                            "internalType": "string",
                            "name": "metadataURI",
                            "type": "string"
                        },
                        {
                            "internalType": "uint256",
                            "name": "timestamp",
                            "type": "uint256"
                        }
                    ],
                    "internalType": "struct TimelessTokens2.NFTStruct[]",
                    "name": "",
                    "type": "tuple[]"
                }
            ],
            "stateMutability": "view",
            "type": "function"
        },
        {
            "inputs": [],
            "name": "getAllTransactions",
            "outputs": [
                {
                    "components": [
                        {
                            "internalType": "uint256",
                            "name": "id",
                            "type": "uint256"
                        },
                        {
                            "internalType": "enum TimelessTokens2.TransactionType",
                            "name": "transactionType",
                            "type": "uint8"
                        },
                        {
                            "internalType": "address",
                            "name": "from",
                            "type": "address"
                        },
                        {
                            "internalType": "address",
                            "name": "to",
                            "type": "address"
                        },
                        {
                            "internalType": "uint256",
                            "name": "cost",
                            "type": "uint256"
                        },
                        {
                            "internalType": "uint256",
                            "name": "timestamp",
                            "type": "uint256"
                        }
                    ],
                    "internalType": "struct TimelessTokens2.TransactionStruct[]",
                    "name": "",
                    "type": "tuple[]"
                }
            ],
            "stateMutability": "view",
            "type": "function"
        },
        {
            "inputs": [
                {
                    "internalType": "uint256",
                    "name": "tokenId",
                    "type": "uint256"
                }
            ],
            "name": "getApproved",
            "outputs": [
                {
                    "internalType": "address",
                    "name": "",
                    "type": "address"
                }
            ],
            "stateMutability": "view",
            "type": "function"
        },
        {
            "inputs": [
                {
                    "internalType": "uint256",
                    "name": "id",
                    "type": "uint256"
                }
            ],
            "name": "getNFT",
            "outputs": [
                {
                    "components": [
                        {
                            "internalType": "uint256",
                            "name": "id",
                            "type": "uint256"
                        },
                        {
                            "internalType": "address",
                            "name": "owner",
                            "type": "address"
                        },
                        {
                            "internalType": "uint256",
                            "name": "cost",
                            "type": "uint256"
                        },
                        {
                            "internalType": "string",
                            "name": "title",
                            "type": "string"
                        },
                        {
                            "internalType": "string",
                            "name": "description",
                            "type": "string"
                        },
                        {
                            "internalType": "string",
                            "name": "metadataURI",
                            "type": "string"
                        },
                        {
                            "internalType": "uint256",
                            "name": "timestamp",
                            "type": "uint256"
                        }
                    ],
                    "internalType": "struct TimelessTokens2.NFTStruct",
                    "name": "",
                    "type": "tuple"
                }
            ],
            "stateMutability": "view",
            "type": "function"
        },
        {
            "inputs": [
                {
                    "internalType": "uint256",
                    "name": "",
                    "type": "uint256"
                }
            ],
            "name": "holderOf",
            "outputs": [
                {
                    "internalType": "address",
                    "name": "",
                    "type": "address"
                }
            ],
            "stateMutability": "view",
            "type": "function"
        },
        {
            "inputs": [
                {
                    "internalType": "string",
                    "name": "_name",
                    "type": "string"
                },
                {
                    "internalType": "string",
                    "name": "_symbol",
                    "type": "string"
                },
                {
                    "internalType": "uint256",
                    "name": "_royalityFeeRate",
                    "type": "uint256"
                },
                {
                    "internalType": "address",
                    "name": "_artist",
                    "type": "address"
                },
                {
                    "internalType": "address",
                    "name": "_initialOwner",
                    "type": "address"
                }
            ],
            "name": "initialize",
            "outputs": [],
            "stateMutability": "nonpayable",
            "type": "function"
        },
        {
            "inputs": [
                {
                    "internalType": "address",
                    "name": "owner",
                    "type": "address"
                },
                {
                    "internalType": "address",
                    "name": "operator",
                    "type": "address"
                }
            ],
            "name": "isApprovedForAll",
            "outputs": [
                {
                    "internalType": "bool",
                    "name": "",
                    "type": "bool"
                }
            ],
            "stateMutability": "view",
            "type": "function"
        },
        {
            "inputs": [
                {
                    "internalType": "string",
                    "name": "title",
                    "type": "string"
                },
                {
                    "internalType": "string",
                    "name": "description",
                    "type": "string"
                },
                {
                    "internalType": "string",
                    "name": "metadataURI",
                    "type": "string"
                },
                {
                    "internalType": "uint256",
                    "name": "salesPrice",
                    "type": "uint256"
                }
            ],
            "name": "mintByOwner",
            "outputs": [],
            "stateMutability": "payable",
            "type": "function"
        },
        {
            "inputs": [],
            "name": "mintFee",
            "outputs": [
                {
                    "internalType": "uint256",
                    "name": "",
                    "type": "uint256"
                }
            ],
            "stateMutability": "view",
            "type": "function"
        },
        {
            "inputs": [],
            "name": "name",
            "outputs": [
                {
                    "internalType": "string",
                    "name": "",
                    "type": "string"
                }
            ],
            "stateMutability": "view",
            "type": "function"
        },
        {
            "inputs": [],
            "name": "owner",
            "outputs": [
                {
                    "internalType": "address",
                    "name": "",
                    "type": "address"
                }
            ],
            "stateMutability": "view",
            "type": "function"
        },
        {
            "inputs": [
                {
                    "internalType": "uint256",
                    "name": "tokenId",
                    "type": "uint256"
                }
            ],
            "name": "ownerOf",
            "outputs": [
                {
                    "internalType": "address",
                    "name": "",
                    "type": "address"
                }
            ],
            "stateMutability": "view",
            "type": "function"
        },
        {
            "inputs": [
                {
                    "internalType": "uint256",
                    "name": "id",
                    "type": "uint256"
                }
            ],
            "name": "payToBuy",
            "outputs": [],
            "stateMutability": "payable",
            "type": "function"
        },
        {
            "inputs": [],
            "name": "proxiableUUID",
            "outputs": [
                {
                    "internalType": "bytes32",
                    "name": "",
                    "type": "bytes32"
                }
            ],
            "stateMutability": "view",
            "type": "function"
        },
        {
            "inputs": [
                {
                    "internalType": "uint256[]",
                    "name": "indices",
                    "type": "uint256[]"
                },
                {
                    "internalType": "string[]",
                    "name": "metadataURI",
                    "type": "string[]"
                }
            ],
            "name": "removeMultipleReviewedListByindices",
            "outputs": [],
            "stateMutability": "nonpayable",
            "type": "function"
        },
        {
            "inputs": [
                {
                    "internalType": "uint256",
                    "name": "index",
                    "type": "uint256"
                },
                {
                    "internalType": "string",
                    "name": "metadataURI",
                    "type": "string"
                }
            ],
            "name": "removeReviewedListByIndex",
            "outputs": [],
            "stateMutability": "nonpayable",
            "type": "function"
        },
        {
            "inputs": [],
            "name": "renounceOwnership",
            "outputs": [],
            "stateMutability": "nonpayable",
            "type": "function"
        },
        {
            "inputs": [],
            "name": "royalityFeeRate",
            "outputs": [
                {
                    "internalType": "uint256",
                    "name": "",
                    "type": "uint256"
                }
            ],
            "stateMutability": "view",
            "type": "function"
        },
        {
            "inputs": [
                {
                    "internalType": "address",
                    "name": "from",
                    "type": "address"
                },
                {
                    "internalType": "address",
                    "name": "to",
                    "type": "address"
                },
                {
                    "internalType": "uint256",
                    "name": "tokenId",
                    "type": "uint256"
                }
            ],
            "name": "safeTransferFrom",
            "outputs": [],
            "stateMutability": "nonpayable",
            "type": "function"
        },
        {
            "inputs": [
                {
                    "internalType": "address",
                    "name": "from",
                    "type": "address"
                },
                {
                    "internalType": "address",
                    "name": "to",
                    "type": "address"
                },
                {
                    "internalType": "uint256",
                    "name": "tokenId",
                    "type": "uint256"
                },
                {
                    "internalType": "bytes",
                    "name": "data",
                    "type": "bytes"
                }
            ],
            "name": "safeTransferFrom",
            "outputs": [],
            "stateMutability": "nonpayable",
            "type": "function"
        },
        {
            "inputs": [
                {
                    "internalType": "address",
                    "name": "operator",
                    "type": "address"
                },
                {
                    "internalType": "bool",
                    "name": "approved",
                    "type": "bool"
                }
            ],
            "name": "setApprovalForAll",
            "outputs": [],
            "stateMutability": "nonpayable",
            "type": "function"
        },
        {
            "inputs": [
                {
                    "internalType": "string",
                    "name": "title",
                    "type": "string"
                },
                {
                    "internalType": "string",
                    "name": "description",
                    "type": "string"
                },
                {
                    "internalType": "string",
                    "name": "metadataURI",
                    "type": "string"
                },
                {
                    "internalType": "uint256",
                    "name": "salesPrice",
                    "type": "uint256"
                }
            ],
            "name": "submitTobeReviewedList",
            "outputs": [],
            "stateMutability": "payable",
            "type": "function"
        },
        {
            "inputs": [],
            "name": "supply",
            "outputs": [
                {
                    "internalType": "uint256",
                    "name": "",
                    "type": "uint256"
                }
            ],
            "stateMutability": "view",
            "type": "function"
        },
        {
            "inputs": [
                {
                    "internalType": "bytes4",
                    "name": "interfaceId",
                    "type": "bytes4"
                }
            ],
            "name": "supportsInterface",
            "outputs": [
                {
                    "internalType": "bool",
                    "name": "",
                    "type": "bool"
                }
            ],
            "stateMutability": "view",
            "type": "function"
        },
        {
            "inputs": [],
            "name": "symbol",
            "outputs": [
                {
                    "internalType": "string",
                    "name": "",
                    "type": "string"
                }
            ],
            "stateMutability": "view",
            "type": "function"
        },
        {
            "inputs": [
                {
                    "internalType": "uint256",
                    "name": "index",
                    "type": "uint256"
                }
            ],
            "name": "tokenByIndex",
            "outputs": [
                {
                    "internalType": "uint256",
                    "name": "",
                    "type": "uint256"
                }
            ],
            "stateMutability": "view",
            "type": "function"
        },
        {
            "inputs": [
                {
                    "internalType": "address",
                    "name": "owner",
                    "type": "address"
                },
                {
                    "internalType": "uint256",
                    "name": "index",
                    "type": "uint256"
                }
            ],
            "name": "tokenOfOwnerByIndex",
            "outputs": [
                {
                    "internalType": "uint256",
                    "name": "",
                    "type": "uint256"
                }
            ],
            "stateMutability": "view",
            "type": "function"
        },
        {
            "inputs": [
                {
                    "internalType": "uint256",
                    "name": "tokenId",
                    "type": "uint256"
                }
            ],
            "name": "tokenURI",
            "outputs": [
                {
                    "internalType": "string",
                    "name": "",
                    "type": "string"
                }
            ],
            "stateMutability": "view",
            "type": "function"
        },
        {
            "inputs": [],
            "name": "totalSupply",
            "outputs": [
                {
                    "internalType": "uint256",
                    "name": "",
                    "type": "uint256"
                }
            ],
            "stateMutability": "view",
            "type": "function"
        },
        {
            "inputs": [],
            "name": "totalTx",
            "outputs": [
                {
                    "internalType": "uint256",
                    "name": "",
                    "type": "uint256"
                }
            ],
            "stateMutability": "view",
            "type": "function"
        },
        {
            "inputs": [
                {
                    "internalType": "address",
                    "name": "from",
                    "type": "address"
                },
                {
                    "internalType": "address",
                    "name": "to",
                    "type": "address"
                },
                {
                    "internalType": "uint256",
                    "name": "tokenId",
                    "type": "uint256"
                }
            ],
            "name": "transferFrom",
            "outputs": [],
            "stateMutability": "nonpayable",
            "type": "function"
        },
        {
            "inputs": [
                {
                    "internalType": "address",
                    "name": "newOwner",
                    "type": "address"
                }
            ],
            "name": "transferOwnership",
            "outputs": [],
            "stateMutability": "nonpayable",
            "type": "function"
        },
        {
            "inputs": [
                {
                    "internalType": "address",
                    "name": "newImplementation",
                    "type": "address"
                },
                {
                    "internalType": "bytes",
                    "name": "data",
                    "type": "bytes"
                }
            ],
            "name": "upgradeToAndCall",
            "outputs": [],
            "stateMutability": "payable",
            "type": "function"
        },
        {
            "inputs": [
                {
                    "internalType": "uint256",
                    "name": "amount",
                    "type": "uint256"
                }
            ],
            "name": "withdrawEth",
            "outputs": [],
            "stateMutability": "nonpayable",
            "type": "function"
        }
    ],
    "bytecode": "60a060405230608052348015610013575f80fd5b5060805161462361003a5f395f81816127dd01528181612806015261294501526146235ff3fe608060405260043610610249575f3560e01c80636a31bc2711610134578063ad3cb1cc116100b3578063c87b56dd11610078578063c87b56dd14610687578063dbacc237146106a6578063e0391b09146106da578063e985e9c5146106ee578063f2fde38b1461070d578063f6f21c631461072c575f80fd5b8063ad3cb1cc146105d9578063b3de019c14610609578063b70203b514610628578063b88d4fde14610649578063c311d04914610668575f80fd5b806388f7bc4a116100f957806388f7bc4a146105605780638da5cb5b1461057f57806395d89b41146105935780639ba4b017146105a7578063a22cb465146105ba575f80fd5b80636a31bc27146104e657806370a08231146104f9578063715018a6146105185780637220cf391461052c5780637e77c50314610541575f80fd5b806327506f53116101cb5780634a2a9bfb116101905780634a2a9bfb146104425780634f1ef286146104555780634f6ccce71461046857806352d1902d14610487578063576f7ea71461049b5780636352211e146104c7575f80fd5b806327506f53146103af5780632f745c59146103d057806340e9903b146103ef57806342842e0e1461040457806343bc161214610423575f80fd5b80630fdf60f4116102115780630fdf60f41461031d57806313966db51461033c57806318160ddd14610351578063222d695c1461037157806323b872dd14610390575f80fd5b806301ffc9a71461024d578063047fc9aa1461028157806306fdde03146102a4578063081812fc146102c5578063095ea7b3146102fc575b5f80fd5b348015610258575f80fd5b5061026c610267366004613937565b610741565b60405190151581526020015b60405180910390f35b34801561028c575f80fd5b5061029660045481565b604051908152602001610278565b3480156102af575f80fd5b506102b861076b565b604051610278919061399f565b3480156102d0575f80fd5b506102e46102df3660046139b1565b61080c565b6040516001600160a01b039091168152602001610278565b348015610307575f80fd5b5061031b6103163660046139e3565b610820565b005b348015610328575f80fd5b5061031b610337366004613b67565b61082f565b348015610347575f80fd5b5061029660065481565b34801561035c575f80fd5b505f805160206145ce83398151915254610296565b34801561037c575f80fd5b5061031b61038b366004613c19565b6108ec565b34801561039b575f80fd5b5061031b6103aa366004613c52565b6109ab565b3480156103ba575f80fd5b506103c3610a34565b6040516102789190613c9f565b3480156103db575f80fd5b506102966103ea3660046139e3565b610b11565b3480156103fa575f80fd5b5061029660075481565b34801561040f575f80fd5b5061031b61041e366004613c52565b610b82565b34801561042e575f80fd5b506002546102e4906001600160a01b031681565b61031b610450366004613d42565b610b9c565b61031b610463366004613dcb565b610dc3565b348015610473575f80fd5b506102966104823660046139b1565b610dde565b348015610492575f80fd5b50610296610e50565b3480156104a6575f80fd5b506104ba6104b53660046139b1565b610e6b565b6040516102789190613e83565b3480156104d2575f80fd5b506102e46104e13660046139b1565b6110e6565b61031b6104f4366004613d42565b6110f0565b348015610504575f80fd5b50610296610513366004613e95565b6111ae565b348015610523575f80fd5b5061031b611206565b348015610537575f80fd5b5061029660055481565b34801561054c575f80fd5b5061031b61055b366004613eae565b611219565b34801561056b575f80fd5b5061031b61057a366004613b67565b61137a565b34801561058a575f80fd5b506102e4611859565b34801561059e575f80fd5b506102b8611887565b61031b6105b53660046139b1565b6118c5565b3480156105c5575f80fd5b5061031b6105d4366004613f36565b611b77565b3480156105e4575f80fd5b506102b8604051806040016040528060058152602001640352e302e360dc1b81525081565b348015610614575f80fd5b5061026c610623366004613f6f565b611b82565b348015610633575f80fd5b5061063c611c7d565b6040516102789190613f8f565b348015610654575f80fd5b5061031b610663366004613fef565b611eb6565b348015610673575f80fd5b5061031b6106823660046139b1565b611ecd565b348015610692575f80fd5b506102b86106a13660046139b1565b612075565b3480156106b1575f80fd5b506102e46106c03660046139b1565b60016020525f90815260409020546001600160a01b031681565b3480156106e5575f80fd5b5061063c6120e6565b3480156106f9575f80fd5b5061026c610708366004614052565b61231f565b348015610718575f80fd5b5061031b610727366004613e95565b61236b565b348015610737575f80fd5b5061029660035481565b5f6001600160e01b0319821663780e9d6360e01b14806107655750610765826123a8565b92915050565b5f8051602061458e833981519152805460609190819061078a90614083565b80601f01602080910402602001604051908101604052809291908181526020018280546107b690614083565b80156108015780601f106107d857610100808354040283529160200191610801565b820191905f5260205f20905b8154815290600101906020018083116107e457829003601f168201915b505050505091505090565b5f610816826123f7565b506107658261242e565b61082b828233612467565b5050565b600a548251111561087a5760405162461bcd60e51b815260206004820152601060248201526f546f6f206d616e7920696e646963657360801b60448201526064015b60405180910390fd5b81515b80156108e7576108d5836108926001846140cf565b815181106108a2576108a26140e2565b6020026020010151836001846108b891906140cf565b815181106108c8576108c86140e2565b60200260200101516108ec565b806108df816140f6565b91505061087d565b505050565b5f600a8381548110610900576109006140e2565b5f9182526020909120600160079092020101546001600160a01b03169050610926611859565b6001600160a01b0316336001600160a01b0316148061094d5750336001600160a01b038216145b6109885760405162461bcd60e51b815260206004820152600c60248201526b4e6f7420616c6c6f7765642160a01b6044820152606401610871565b6109928383612474565b6108e7816007546006546109a6919061410b565b612679565b6001600160a01b0382166109d457604051633250574960e11b81525f6004820152602401610871565b5f6109e08383336126d4565b9050836001600160a01b0316816001600160a01b031614610a2e576040516364283d7b60e01b81526001600160a01b0380861660048301526024820184905282166044820152606401610871565b50505050565b60606008805480602002602001604051908101604052809291908181526020015f905b82821015610b08578382905f5260205f2090600502016040518060c00160405290815f8201548152602001600182015f9054906101000a900460ff166001811115610aa457610aa4613c8b565b6001811115610ab557610ab5613c8b565b81526001828101546001600160a01b036101009091048116602080850191909152600285015490911660408401526003840154606084015260049093015460809092019190915291835292019101610a57565b50505050905090565b5f5f8051602061456e833981519152610b29846111ae565b8310610b5a5760405163295f44f760e21b81526001600160a01b038516600482015260248101849052604401610871565b6001600160a01b0384165f908152602091825260408082208583529092522054905092915050565b6108e783838360405180602001604052805f815250611eb6565b600654600754610bac919061410b565b341015610c095760405162461bcd60e51b815260206004820152602560248201527f457468657220746f6f206c6f7720666f72206d696e7420616e6420657865637560448201526474696f6e2160d81b6064820152608401610871565b5f82604051610c18919061411e565b9081526040519081900360200190205460ff1615610c785760405162461bcd60e51b815260206004820152601b60248201527f54686973204e465420697320616c7265616479206d696e7465642100000000006044820152606401610871565b6040805160e081018252600a80548083523360208401908152938301858152606084018981526080850189905260a085018890524260c08601526001830184555f9390935283517fc65a7bb8d6351c1cf70c95a316cc6a92839c986682d98bc35f958f4883f9d2a8600790930292830190815594517fc65a7bb8d6351c1cf70c95a316cc6a92839c986682d98bc35f958f4883f9d2a9830180546001600160a01b0319166001600160a01b03909216919091179055517fc65a7bb8d6351c1cf70c95a316cc6a92839c986682d98bc35f958f4883f9d2aa82015590519192917fc65a7bb8d6351c1cf70c95a316cc6a92839c986682d98bc35f958f4883f9d2ab90910190610d86908261417e565b5060808201516004820190610d9b908261417e565b5060a08201516005820190610db0908261417e565b5060c08201518160060155505050505050565b610dcb6127d2565b610dd482612876565b61082b828261287e565b5f5f8051602061456e833981519152610e025f805160206145ce8339815191525490565b8310610e2a5760405163295f44f760e21b81525f600482015260248101849052604401610871565b806002018381548110610e3f57610e3f6140e2565b905f5260205f200154915050919050565b5f610e5961293a565b505f805160206145ae83398151915290565b610eb06040518060e001604052805f81526020015f6001600160a01b031681526020015f81526020016060815260200160608152602001606081526020015f81525090565b6009610ebd6001846140cf565b81548110610ecd57610ecd6140e2565b905f5260205f2090600702016040518060e00160405290815f8201548152602001600182015f9054906101000a90046001600160a01b03166001600160a01b03166001600160a01b0316815260200160028201548152602001600382018054610f3590614083565b80601f0160208091040260200160405190810160405280929190818152602001828054610f6190614083565b8015610fac5780601f10610f8357610100808354040283529160200191610fac565b820191905f5260205f20905b815481529060010190602001808311610f8f57829003601f168201915b50505050508152602001600482018054610fc590614083565b80601f0160208091040260200160405190810160405280929190818152602001828054610ff190614083565b801561103c5780601f106110135761010080835404028352916020019161103c565b820191905f5260205f20905b81548152906001019060200180831161101f57829003601f168201915b5050505050815260200160058201805461105590614083565b80601f016020809104026020016040519081016040528092919081815260200182805461108190614083565b80156110cc5780601f106110a3576101008083540402835291602001916110cc565b820191905f5260205f20905b8154815290600101906020018083116110af57829003601f168201915b505050505081526020016006820154815250509050919050565b5f610765826123f7565b6110f8612983565b60065434101561114a5760405162461bcd60e51b815260206004820152601a60248201527f457468657220746f6f206c6f7720666f72206d696e74696e67210000000000006044820152606401610871565b5f60646003543461115b9190614239565b6111659190614250565b60025490915061117e906001600160a01b031682612679565b611193611189611859565b6109a683346140cf565b6111a761119e611859565b868686866129b5565b5050505050565b5f5f8051602061458e8339815191526001600160a01b0383166111e6576040516322718ad960e21b81525f6004820152602401610871565b6001600160a01b039092165f908152600390920160205250604090205490565b61120e612983565b6112175f612d50565b565b7ff0c57e16840df040f15088dc2f81fe391c3923bec73e23a9662efc9c229c6a008054600160401b810460ff1615906001600160401b03165f8115801561125d5750825b90505f826001600160401b031660011480156112785750303b155b905081158015611286575080155b156112a45760405163f92ee8a960e01b815260040160405180910390fd5b845467ffffffffffffffff1916600117855583156112ce57845460ff60401b1916600160401b1785555b6112d786612dc0565b6112df612dd1565b6112e98a8a612dd9565b6003889055600280546001600160a01b0319166001600160a01b0389161790555f6004819055600555662386f26fc1000060065566038d7ea4c68000600755831561136e57845460ff60401b19168555604051600181527fc7f505b2f371ae2175ee4913f4499e1f2633a7b5936321eed1cdaeb6115181d29060200160405180910390a15b50505050505050505050565b611382612983565b600a54825111156113a55760405162461bcd60e51b81526004016108719061426f565b5f60065483516113b59190614239565b90505f6064600354836113c89190614239565b6113d29190614250565b90505f6113df82846140cf565b90505f60075486516113f19190614239565b90506113fd828461410b565b47101561144c5760405162461bcd60e51b815260206004820152601f60248201527f4e6f7420656e6f7567682045544820746f2065786563757465206d696e7421006044820152606401610871565b85515b801561182557600a54876114646001846140cf565b81518110611474576114746140e2565b6020026020010151106114995760405162461bcd60e51b81526004016108719061426f565b5f600a886114a86001856140cf565b815181106114b8576114b86140e2565b6020026020010151815481106114d0576114d06140e2565b905f5260205f2090600702016040518060e00160405290815f8201548152602001600182015f9054906101000a90046001600160a01b03166001600160a01b03166001600160a01b031681526020016002820154815260200160038201805461153890614083565b80601f016020809104026020016040519081016040528092919081815260200182805461156490614083565b80156115af5780601f10611586576101008083540402835291602001916115af565b820191905f5260205f20905b81548152906001019060200180831161159257829003601f168201915b505050505081526020016004820180546115c890614083565b80601f01602080910402602001604051908101604052809291908181526020018280546115f490614083565b801561163f5780601f106116165761010080835404028352916020019161163f565b820191905f5260205f20905b81548152906001019060200180831161162257829003601f168201915b5050505050815260200160058201805461165890614083565b80601f016020809104026020016040519081016040528092919081815260200182805461168490614083565b80156116cf5780601f106116a6576101008083540402835291602001916116cf565b820191905f5260205f20905b8154815290600101906020018083116116b257829003601f168201915b5050505050815260200160068201548152505090508060a001516040516020016116f9919061411e565b604051602081830303815290604052805190602001208760018461171d91906140cf565b8151811061172d5761172d6140e2565b6020026020010151604051602001611745919061411e565b604051602081830303815290604052805190602001201461179f5760405162461bcd60e51b8152602060048201526014602482015273496e76616c6964206d657461646174615552492160601b6044820152606401610871565b6117c08160200151826060015183608001518460a0015185604001516129b5565b611812886117cf6001856140cf565b815181106117df576117df6140e2565b6020026020010151886001856117f591906140cf565b81518110611805576118056140e2565b6020026020010151612474565b508061181d816140f6565b91505061144f565b5060025461183c906001600160a01b031684612679565b611851611847611859565b6109a6838561410b565b505050505050565b7f9016d09d72d40fdae2fd8ceac6b6234c7706214fd39c1cd1e609a0528c199300546001600160a01b031690565b7f80bb2b638cc20bc4d0a60d66940f3ab4a00c1d7b313497ca82fb0b4ab007930180546060915f8051602061458e8339815191529161078a90614083565b5f60096118d36001846140cf565b815481106118e3576118e36140e2565b905f5260205f209060070201905080600201543410156119455760405162461bcd60e51b815260206004820152601b60248201527f457468657220746f6f206c6f7720666f722070757263686173652100000000006044820152606401610871565b60018101546001600160a01b0316330361199a5760405162461bcd60e51b81526020600482015260166024820152754f7065726174696f6e204e6f7420416c6c6f7765642160501b6044820152606401610871565b60058054905f6119a98361429c565b90915550506040805160c0810182526005805482525f602083018181526001868101546001600160a01b0316958501959095523360608501523460808501524260a085015260088054808701825592528351919092027ff3f7a9fe364faab93b216da50a3214154f22a0a2b415b23a84c8169e8b636ee3810191825591517ff3f7a9fe364faab93b216da50a3214154f22a0a2b415b23a84c8169e8b636ee4909201805493949193909160ff19909116908381811115611a6b57611a6b613c8b565b02179055506040820151600180830180546001600160a01b0393841661010002610100600160a81b031990911617905560608401516002840180549184166001600160a01b0319928316179055608085015160038086019190915560a090950151600490940193909355840180549283163317905591549116905f90606490611af49034614239565b611afe9190614250565b600254909150611b17906001600160a01b031682612679565b611b25826109a683346140cf565b336001600160a01b03167fb9508407a6eccb191d8da3286f4173697cf95604e9ea192fe5ab7c862b5221f6600554348660050142604051611b6994939291906142b4565b60405180910390a250505050565b61082b338383612deb565b5f808211611bc35760405162461bcd60e51b815260206004820152600e60248201526d457468657220746f6f206c6f772160901b6044820152606401610871565b6009611bd06001856140cf565b81548110611be057611be06140e2565b5f9182526020909120600790910201600101546001600160a01b03163314611c435760405162461bcd60e51b81526020600482015260166024820152754f7065726174696f6e204e6f7420416c6c6f7765642160501b6044820152606401610871565b816009611c516001866140cf565b81548110611c6157611c616140e2565b5f91825260209091206002600790920201015550600192915050565b6060600a805480602002602001604051908101604052809291908181526020015f905b82821015610b08575f8481526020908190206040805160e081018252600786029092018054835260018101546001600160a01b031693830193909352600283015490820152600382018054919291606084019190611cfd90614083565b80601f0160208091040260200160405190810160405280929190818152602001828054611d2990614083565b8015611d745780601f10611d4b57610100808354040283529160200191611d74565b820191905f5260205f20905b815481529060010190602001808311611d5757829003601f168201915b50505050508152602001600482018054611d8d90614083565b80601f0160208091040260200160405190810160405280929190818152602001828054611db990614083565b8015611e045780601f10611ddb57610100808354040283529160200191611e04565b820191905f5260205f20905b815481529060010190602001808311611de757829003601f168201915b50505050508152602001600582018054611e1d90614083565b80601f0160208091040260200160405190810160405280929190818152602001828054611e4990614083565b8015611e945780601f10611e6b57610100808354040283529160200191611e94565b820191905f5260205f20905b815481529060010190602001808311611e7757829003601f168201915b5050505050815260200160068201548152505081526020019060010190611ca0565b611ec18484846109ab565b610a2e84848484612e9a565b611ed5612983565b4780611f185760405162461bcd60e51b81526020600482015260126024820152714e6f2045544820746f20776974686472617760701b6044820152606401610871565b5f8211611f675760405162461bcd60e51b815260206004820152601d60248201527f416d6f756e74206d7573742062652067726561746572207468616e20300000006044820152606401610871565b81811015611fb75760405162461bcd60e51b815260206004820152601a60248201527f4e6f7420656e6f7567682045544820746f2077697468647261770000000000006044820152606401610871565b5f600754600654611fc8919061410b565b600a54611fd59190614239565b9050611fe181836140cf565b8311156120645760405162461bcd60e51b8152602060048201526044602482018190527f54686572652077696c6c20626520696e73756666696369656e742066756e6473908201527f20746f2072657669657720746865206c697374206f66207472616e736163746960648201526337b7399760e11b608482015260a401610871565b6108e761206f611859565b84612679565b6060612080826123f7565b505f61209660408051602081019091525f815290565b90505f8151116120b45760405180602001604052805f8152506120df565b806120be84612fb9565b6040516020016120cf929190614350565b6040516020818303038152906040525b9392505050565b60606009805480602002602001604051908101604052809291908181526020015f905b82821015610b08575f8481526020908190206040805160e081018252600786029092018054835260018101546001600160a01b03169383019390935260028301549082015260038201805491929160608401919061216690614083565b80601f016020809104026020016040519081016040528092919081815260200182805461219290614083565b80156121dd5780601f106121b4576101008083540402835291602001916121dd565b820191905f5260205f20905b8154815290600101906020018083116121c057829003601f168201915b505050505081526020016004820180546121f690614083565b80601f016020809104026020016040519081016040528092919081815260200182805461222290614083565b801561226d5780601f106122445761010080835404028352916020019161226d565b820191905f5260205f20905b81548152906001019060200180831161225057829003601f168201915b5050505050815260200160058201805461228690614083565b80601f01602080910402602001604051908101604052809291908181526020018280546122b290614083565b80156122fd5780601f106122d4576101008083540402835291602001916122fd565b820191905f5260205f20905b8154815290600101906020018083116122e057829003601f168201915b5050505050815260200160068201548152505081526020019060010190612109565b6001600160a01b039182165f9081527f80bb2b638cc20bc4d0a60d66940f3ab4a00c1d7b313497ca82fb0b4ab00793056020908152604080832093909416825291909152205460ff1690565b612373612983565b6001600160a01b03811661239c57604051631e4fbdf760e01b81525f6004820152602401610871565b6123a581612d50565b50565b5f6001600160e01b031982166380ac58cd60e01b14806123d857506001600160e01b03198216635b5e139f60e01b145b8061076557506301ffc9a760e01b6001600160e01b0319831614610765565b5f8061240283613048565b90506001600160a01b03811661076557604051637e27328960e01b815260048101849052602401610871565b5f9081527f80bb2b638cc20bc4d0a60d66940f3ab4a00c1d7b313497ca82fb0b4ab007930460205260409020546001600160a01b031690565b6108e78383836001613081565b80604051602001612485919061411e565b60405160208183030381529060405280519060200120600a83815481106124ae576124ae6140e2565b905f5260205f2090600702016005016040516020016124cd919061437e565b604051602081830303815290604052805190602001201461251c5760405162461bcd60e51b815260206004820152600960248201526857726f6e672055524960b81b6044820152606401610871565b600a54821061253d5760405162461bcd60e51b81526004016108719061426f565b600a805461254d906001906140cf565b8154811061255d5761255d6140e2565b905f5260205f209060070201600a838154811061257c5761257c6140e2565b5f9182526020909120825460079092020190815560018083015490820180546001600160a01b0319166001600160a01b03909216919091179055600280830154908201556003808201906125d2908401826143f0565b506004818101906125e5908401826143f0565b506005818101906125f8908401826143f0565b50600691820154910155600a805480612613576126136144bc565b5f8281526020812060075f19909301928302018181556001810180546001600160a01b0319169055600281018290559061265060038301826138d8565b61265d600483015f6138d8565b61266a600583015f6138d8565b600682015f9055505090555050565b5f826001600160a01b0316826040515f6040518083038185875af1925050503d805f81146126c2576040519150601f19603f3d011682016040523d82523d5f602084013e6126c7565b606091505b50509050806108e7575f80fd5b5f806126e1858585613194565b90506001600160a01b03811661276857612763845f805160206145ce83398151915280545f8381527f645e039705490088daad89bae25049a34f4a9072d398537b1ab2425f24cbed0360205260408120829055600182018355919091527fa42f15e5d656f8155fd7419d740a6073999f19cd6e061449ce4a257150545bf20155565b61278b565b846001600160a01b0316816001600160a01b03161461278b5761278b8185613296565b6001600160a01b0385166127a7576127a284613335565b6127ca565b846001600160a01b0316816001600160a01b0316146127ca576127ca8585613402565b949350505050565b306001600160a01b037f000000000000000000000000000000000000000000000000000000000000000016148061285857507f00000000000000000000000000000000000000000000000000000000000000006001600160a01b031661284c5f805160206145ae833981519152546001600160a01b031690565b6001600160a01b031614155b156112175760405163703e46dd60e11b815260040160405180910390fd5b6123a5612983565b816001600160a01b03166352d1902d6040518163ffffffff1660e01b8152600401602060405180830381865afa9250505080156128d8575060408051601f3d908101601f191682019092526128d5918101906144d0565b60015b61290057604051634c9c8ce360e01b81526001600160a01b0383166004820152602401610871565b5f805160206145ae833981519152811461293057604051632a87526960e21b815260048101829052602401610871565b6108e7838361345a565b306001600160a01b037f000000000000000000000000000000000000000000000000000000000000000016146112175760405163703e46dd60e11b815260040160405180910390fd5b3361298c611859565b6001600160a01b0316146112175760405163118cdaa760e01b8152336004820152602401610871565b5f826040516129c4919061411e565b9081526040519081900360200190205460ff1615612a245760405162461bcd60e51b815260206004820152601b60248201527f54686973204e465420697320616c7265616479206d696e7465642100000000006044820152606401610871565b60048054905f612a338361429c565b909155505060058054905f612a478361429c565b90915550506040805160e08101825260045481526001600160a01b0387811660208301908152928201848152606083018881526080840188905260a084018790524260c0850152600980546001810182555f9190915284517f6e1540171b6c0c960b71a7020d9f60077f6af931a8bbf590da0223dacf75c7af600790920291820190815595517f6e1540171b6c0c960b71a7020d9f60077f6af931a8bbf590da0223dacf75c7b0820180546001600160a01b031916919095161790935590517f6e1540171b6c0c960b71a7020d9f60077f6af931a8bbf590da0223dacf75c7b1830155519192917f6e1540171b6c0c960b71a7020d9f60077f6af931a8bbf590da0223dacf75c7b290910190612b5d908261417e565b5060808201516004820190612b72908261417e565b5060a08201516005820190612b87908261417e565b5060c091820151600691909101556040805191820181526005805483526001602084018181525f9385018490526001600160a01b038a16606086015260075460808601524260a086015260088054808401825594528451939092027ff3f7a9fe364faab93b216da50a3214154f22a0a2b415b23a84c8169e8b636ee3810193845591517ff3f7a9fe364faab93b216da50a3214154f22a0a2b415b23a84c8169e8b636ee49092018054909160ff19909116908381811115612c4a57612c4a613c8b565b0217905550604082810151600183018054610100600160a81b0319166101006001600160a01b039384160217905560608401516002840180546001600160a01b031916919092161790556080830151600383015560a09092015160049182015554905133917fb9508407a6eccb191d8da3286f4173697cf95604e9ea192fe5ab7c862b5221f691612ce191903490879042906144e7565b60405180910390a2612cf5336004546134af565b60015f83604051612d06919061411e565b9081526040805160209281900383019020805460ff191660ff94909416939093179092556004545f9081526001909152208054336001600160a01b03199091161790555050505050565b7f9016d09d72d40fdae2fd8ceac6b6234c7706214fd39c1cd1e609a0528c19930080546001600160a01b031981166001600160a01b03848116918217845560405192169182907f8be0079c531659141344cd1fd0a4f28419497f9722a3daafe3b4186f6b6457e0905f90a3505050565b612dc86134c8565b6123a581613511565b6112176134c8565b612de16134c8565b61082b8282613519565b5f8051602061458e8339815191526001600160a01b038316612e2b57604051630b61174360e31b81526001600160a01b0384166004820152602401610871565b6001600160a01b038481165f818152600584016020908152604080832094881680845294825291829020805460ff191687151590811790915591519182527f17307eab39ab6107e8899845ad3d59bd9653f200f220920489ca2b5937696c31910160405180910390a350505050565b6001600160a01b0383163b15610a2e57604051630a85bd0160e11b81526001600160a01b0384169063150b7a0290612edc903390889087908790600401614516565b6020604051808303815f875af1925050508015612f16575060408051601f3d908101601f19168201909252612f1391810190614552565b60015b612f7d573d808015612f43576040519150601f19603f3d011682016040523d82523d5f602084013e612f48565b606091505b5080515f03612f7557604051633250574960e11b81526001600160a01b0385166004820152602401610871565b805181602001fd5b6001600160e01b03198116630a85bd0160e11b146111a757604051633250574960e11b81526001600160a01b0385166004820152602401610871565b60605f612fc583613549565b60010190505f816001600160401b03811115612fe357612fe3613a0b565b6040519080825280601f01601f19166020018201604052801561300d576020820181803683370190505b5090508181016020015b5f19016f181899199a1a9b1b9c1cb0b131b232b360811b600a86061a8153600a850494508461301757509392505050565b5f9081527f80bb2b638cc20bc4d0a60d66940f3ab4a00c1d7b313497ca82fb0b4ab007930260205260409020546001600160a01b031690565b5f8051602061458e83398151915281806130a357506001600160a01b03831615155b15613164575f6130b2856123f7565b90506001600160a01b038416158015906130de5750836001600160a01b0316816001600160a01b031614155b80156130f157506130ef818561231f565b155b1561311a5760405163a9fbf51f60e01b81526001600160a01b0385166004820152602401610871565b82156131625784866001600160a01b0316826001600160a01b03167f8c5be1e5ebec7d5bd14f71427d1e84f3dd0314c0f7b2291e5b200ac8c7c3b92560405160405180910390a45b505b5f93845260040160205250506040902080546001600160a01b0319166001600160a01b0392909216919091179055565b5f5f8051602061458e833981519152816131ad85613048565b90506001600160a01b038416156131c9576131c9818587613620565b6001600160a01b03811615613205576131e45f865f80613081565b6001600160a01b0381165f908152600383016020526040902080545f190190555b6001600160a01b03861615613235576001600160a01b0386165f9081526003830160205260409020805460010190555b5f85815260028301602052604080822080546001600160a01b0319166001600160a01b038a811691821790925591518893918516917fddf252ad1be2c89b69c2b068fc378daa952ba7f163c4a11628f55a4df523b3ef91a495945050505050565b5f8051602061456e8339815191525f6132ae846111ae565b5f848152600184016020526040902054909150808214613301576001600160a01b0385165f9081526020848152604080832085845282528083205484845281842081905583526001860190915290208190555b505f92835260018201602090815260408085208590556001600160a01b039095168452918252838320908352905290812055565b5f805160206145ce833981519152545f8051602061456e833981519152905f90613361906001906140cf565b5f84815260038401602052604081205460028501805493945090928490811061338c5761338c6140e2565b905f5260205f2001549050808460020183815481106133ad576133ad6140e2565b5f918252602080832090910192909255828152600386019091526040808220849055868252812055600284018054806133e8576133e86144bc565b600190038181905f5260205f20015f905590555050505050565b5f8051602061456e8339815191525f600161341c856111ae565b61342691906140cf565b6001600160a01b039094165f9081526020838152604080832087845282528083208690559482526001909301909252502055565b61346382613684565b6040516001600160a01b038316907fbc7cd75a20ee27fd9adebab32041f755214dbc6bffa90cc0225b39da2e5c2d3b905f90a28051156134a7576108e782826136e7565b61082b613759565b61082b828260405180602001604052805f815250613778565b7ff0c57e16840df040f15088dc2f81fe391c3923bec73e23a9662efc9c229c6a0054600160401b900460ff1661121757604051631afcd79f60e31b815260040160405180910390fd5b6123736134c8565b6135216134c8565b5f8051602061458e8339815191528061353a848261417e565b5060018101610a2e838261417e565b5f8072184f03e93ff9f4daa797ed6e38ed64bf6a1f0160401b83106135875772184f03e93ff9f4daa797ed6e38ed64bf6a1f0160401b830492506040015b6d04ee2d6d415b85acef810000000083106135b3576d04ee2d6d415b85acef8100000000830492506020015b662386f26fc1000083106135d157662386f26fc10000830492506010015b6305f5e10083106135e9576305f5e100830492506008015b61271083106135fd57612710830492506004015b6064831061360f576064830492506002015b600a83106107655760010192915050565b61362b83838361378e565b6108e7576001600160a01b03831661365957604051637e27328960e01b815260048101829052602401610871565b60405163177e802f60e01b81526001600160a01b038316600482015260248101829052604401610871565b806001600160a01b03163b5f036136b957604051634c9c8ce360e01b81526001600160a01b0382166004820152602401610871565b5f805160206145ae83398151915280546001600160a01b0319166001600160a01b0392909216919091179055565b60605f80846001600160a01b031684604051613703919061411e565b5f60405180830381855af49150503d805f811461373b576040519150601f19603f3d011682016040523d82523d5f602084013e613740565b606091505b50915091506137508583836137f2565b95945050505050565b34156112175760405163b398979f60e01b815260040160405180910390fd5b613782838361384e565b6108e75f848484612e9a565b5f6001600160a01b038316158015906127ca5750826001600160a01b0316846001600160a01b031614806137c757506137c7848461231f565b806127ca5750826001600160a01b03166137e08361242e565b6001600160a01b031614949350505050565b60608261380757613802826138af565b6120df565b815115801561381e57506001600160a01b0384163b155b1561384757604051639996b31560e01b81526001600160a01b0385166004820152602401610871565b50806120df565b6001600160a01b03821661387757604051633250574960e11b81525f6004820152602401610871565b5f61388383835f6126d4565b90506001600160a01b038116156108e7576040516339e3563760e11b81525f6004820152602401610871565b8051156138bf5780518082602001fd5b604051630a12f52160e11b815260040160405180910390fd5b5080546138e490614083565b5f825580601f106138f3575050565b601f0160209004905f5260205f20908101906123a591905b8082111561391e575f815560010161390b565b5090565b6001600160e01b0319811681146123a5575f80fd5b5f60208284031215613947575f80fd5b81356120df81613922565b5f5b8381101561396c578181015183820152602001613954565b50505f910152565b5f815180845261398b816020860160208601613952565b601f01601f19169290920160200192915050565b602081525f6120df6020830184613974565b5f602082840312156139c1575f80fd5b5035919050565b80356001600160a01b03811681146139de575f80fd5b919050565b5f80604083850312156139f4575f80fd5b6139fd836139c8565b946020939093013593505050565b634e487b7160e01b5f52604160045260245ffd5b604051601f8201601f191681016001600160401b0381118282101715613a4757613a47613a0b565b604052919050565b5f6001600160401b03821115613a6757613a67613a0b565b5060051b60200190565b5f82601f830112613a80575f80fd5b81356001600160401b03811115613a9957613a99613a0b565b613aac601f8201601f1916602001613a1f565b818152846020838601011115613ac0575f80fd5b816020850160208301375f918101602001919091529392505050565b5f82601f830112613aeb575f80fd5b81356020613b00613afb83613a4f565b613a1f565b82815260059290921b84018101918181019086841115613b1e575f80fd5b8286015b84811015613b5c5780356001600160401b03811115613b40575f8081fd5b613b4e8986838b0101613a71565b845250918301918301613b22565b509695505050505050565b5f8060408385031215613b78575f80fd5b82356001600160401b0380821115613b8e575f80fd5b818501915085601f830112613ba1575f80fd5b81356020613bb1613afb83613a4f565b82815260059290921b84018101918181019089841115613bcf575f80fd5b948201945b83861015613bed57853582529482019490820190613bd4565b96505086013592505080821115613c02575f80fd5b50613c0f85828601613adc565b9150509250929050565b5f8060408385031215613c2a575f80fd5b8235915060208301356001600160401b03811115613c46575f80fd5b613c0f85828601613a71565b5f805f60608486031215613c64575f80fd5b613c6d846139c8565b9250613c7b602085016139c8565b9150604084013590509250925092565b634e487b7160e01b5f52602160045260245ffd5b602080825282518282018190525f91906040908185019086840185805b83811015613d34578251805186528781015160028110613cea57634e487b7160e01b84526021600452602484fd5b86890152808701516001600160a01b0390811688880152606080830151909116908701526080808201519087015260a0908101519086015260c09094019391860191600101613cbc565b509298975050505050505050565b5f805f8060808587031215613d55575f80fd5b84356001600160401b0380821115613d6b575f80fd5b613d7788838901613a71565b95506020870135915080821115613d8c575f80fd5b613d9888838901613a71565b94506040870135915080821115613dad575f80fd5b50613dba87828801613a71565b949793965093946060013593505050565b5f8060408385031215613ddc575f80fd5b613de5836139c8565b915060208301356001600160401b03811115613c46575f80fd5b8051825260018060a01b036020820151166020830152604081015160408301525f606082015160e06060850152613e3960e0850182613974565b905060808301518482036080860152613e528282613974565b91505060a083015184820360a0860152613e6c8282613974565b91505060c083015160c08501528091505092915050565b602081525f6120df6020830184613dff565b5f60208284031215613ea5575f80fd5b6120df826139c8565b5f805f805f60a08688031215613ec2575f80fd5b85356001600160401b0380821115613ed8575f80fd5b613ee489838a01613a71565b96506020880135915080821115613ef9575f80fd5b50613f0688828901613a71565b94505060408601359250613f1c606087016139c8565b9150613f2a608087016139c8565b90509295509295909350565b5f8060408385031215613f47575f80fd5b613f50836139c8565b915060208301358015158114613f64575f80fd5b809150509250929050565b5f8060408385031215613f80575f80fd5b50508035926020909101359150565b5f602080830181845280855180835260408601915060408160051b87010192508387015f5b82811015613fe257603f19888603018452613fd0858351613dff565b94509285019290850190600101613fb4565b5092979650505050505050565b5f805f8060808587031215614002575f80fd5b61400b856139c8565b9350614019602086016139c8565b92506040850135915060608501356001600160401b0381111561403a575f80fd5b61404687828801613a71565b91505092959194509250565b5f8060408385031215614063575f80fd5b61406c836139c8565b915061407a602084016139c8565b90509250929050565b600181811c9082168061409757607f821691505b6020821081036140b557634e487b7160e01b5f52602260045260245ffd5b50919050565b634e487b7160e01b5f52601160045260245ffd5b81810381811115610765576107656140bb565b634e487b7160e01b5f52603260045260245ffd5b5f81614104576141046140bb565b505f190190565b80820180821115610765576107656140bb565b5f825161412f818460208701613952565b9190910192915050565b601f8211156108e7575f81815260208120601f850160051c8101602086101561415f5750805b601f850160051c820191505b818110156118515782815560010161416b565b81516001600160401b0381111561419757614197613a0b565b6141ab816141a58454614083565b84614139565b602080601f8311600181146141de575f84156141c75750858301515b5f19600386901b1c1916600185901b178555611851565b5f85815260208120601f198616915b8281101561420c578886015182559484019460019091019084016141ed565b508582101561422957878501515f19600388901b60f8161c191681555b5050505050600190811b01905550565b8082028115828204841417610765576107656140bb565b5f8261426a57634e487b7160e01b5f52601260045260245ffd5b500490565b602080825260139082015272496e646578206f7574206f6620626f756e647360681b604082015260600190565b5f600182016142ad576142ad6140bb565b5060010190565b8481525f60208581840152608060408401525f85546142d281614083565b80608087015260a060018084165f81146142f3576001811461430d57614338565b60ff1985168984015283151560051b890183019550614338565b8a5f52865f205f5b858110156143305781548b8201860152908301908801614315565b8a0184019650505b50505050506060939093019390935250949350505050565b5f8351614361818460208801613952565b835190830190614375818360208801613952565b01949350505050565b5f80835461438b81614083565b600182811680156143a357600181146143b8576143e4565b60ff19841687528215158302870194506143e4565b875f526020805f205f5b858110156143db5781548a8201529084019082016143c2565b50505082870194505b50929695505050505050565b8181036143fb575050565b6144058254614083565b6001600160401b0381111561441c5761441c613a0b565b61442a816141a58454614083565b5f601f82116001811461445b575f83156144445750848201545b5f19600385901b1c1916600184901b1784556111a7565b5f85815260209020601f198416905f86815260209020845b838110156144935782860154825560019586019590910190602001614473565b5085831015614229579301545f1960f8600387901b161c19169092555050600190811b01905550565b634e487b7160e01b5f52603160045260245ffd5b5f602082840312156144e0575f80fd5b5051919050565b848152836020820152608060408201525f6145056080830185613974565b905082606083015295945050505050565b6001600160a01b03858116825284166020820152604081018390526080606082018190525f9061454890830184613974565b9695505050505050565b5f60208284031215614562575f80fd5b81516120df8161392256fe645e039705490088daad89bae25049a34f4a9072d398537b1ab2425f24cbed0080bb2b638cc20bc4d0a60d66940f3ab4a00c1d7b313497ca82fb0b4ab0079300360894a13ba1a3210667c828492db98dca3e2076cc3735a920a3ca505d382bbc645e039705490088daad89bae25049a34f4a9072d398537b1ab2425f24cbed02a264697066735822122037f73d93f26c875ea754b3dc97d004ee87e502c96301e81a092aab5295d6750064736f6c63430008140033",
    "sourcePath": "/Users/liuxi/Desktop/nft-market/contract/contracts/TimelessTokens2.sol",
    "compiler": {
        "name": "solc",
        "version": "0.8.20+commit.a1b79de6"
    },
    "functionHashes": {
        "UPGRADE_INTERFACE_VERSION()": "ad3cb1cc",
        "approve(address,uint256)": "095ea7b3",
        "artist()": "43bc1612",
        "balanceOf(address)": "70a08231",
        "changePrice(uint256,uint256)": "b3de019c",
        "executeMintByOwner(uint256[],string[])": "88f7bc4a",
        "executionFee()": "40e9903b",
        "getAllNFTs()": "e0391b09",
        "getAllToBeReviewLists()": "b70203b5",
        "getAllTransactions()": "27506f53",
        "getApproved(uint256)": "081812fc",
        "getNFT(uint256)": "576f7ea7",
        "holderOf(uint256)": "dbacc237",
        "initialize(string,string,uint256,address,address)": "7e77c503",
        "isApprovedForAll(address,address)": "e985e9c5",
        "mintByOwner(string,string,string,uint256)": "6a31bc27",
        "mintFee()": "13966db5",
        "name()": "06fdde03",
        "owner()": "8da5cb5b",
        "ownerOf(uint256)": "6352211e",
        "payToBuy(uint256)": "9ba4b017",
        "proxiableUUID()": "52d1902d",
        "removeMultipleReviewedListByindices(uint256[],string[])": "0fdf60f4",
        "removeReviewedListByIndex(uint256,string)": "222d695c",
        "renounceOwnership()": "715018a6",
        "royalityFeeRate()": "f6f21c63",
        "safeTransferFrom(address,address,uint256)": "42842e0e",
        "safeTransferFrom(address,address,uint256,bytes)": "b88d4fde",
        "setApprovalForAll(address,bool)": "a22cb465",
        "submitTobeReviewedList(string,string,string,uint256)": "4a2a9bfb",
        "supply()": "047fc9aa",
        "supportsInterface(bytes4)": "01ffc9a7",
        "symbol()": "95d89b41",
        "tokenByIndex(uint256)": "4f6ccce7",
        "tokenOfOwnerByIndex(address,uint256)": "2f745c59",
        "tokenURI(uint256)": "c87b56dd",
        "totalSupply()": "18160ddd",
        "totalTx()": "7220cf39",
        "transferFrom(address,address,uint256)": "23b872dd",
        "transferOwnership(address)": "f2fde38b",
        "upgradeToAndCall(address,bytes)": "4f1ef286",
        "withdrawEth(uint256)": "c311d049"
    },
    "gasEstimates": {
        "creation": {
            "codeDepositCost": "3591000",
            "executionCost": "infinite",
            "totalCost": "infinite"
        },
        "external": {
            "UPGRADE_INTERFACE_VERSION()": "infinite",
            "approve(address,uint256)": "infinite",
            "artist()": "2470",
            "balanceOf(address)": "infinite",
            "changePrice(uint256,uint256)": "infinite",
            "executeMintByOwner(uint256[],string[])": "infinite",
            "executionFee()": "2384",
            "getAllNFTs()": "infinite",
            "getAllToBeReviewLists()": "infinite",
            "getAllTransactions()": "infinite",
            "getApproved(uint256)": "infinite",
            "getNFT(uint256)": "infinite",
            "holderOf(uint256)": "2540",
            "initialize(string,string,uint256,address,address)": "infinite",
            "isApprovedForAll(address,address)": "infinite",
            "mintByOwner(string,string,string,uint256)": "infinite",
            "mintFee()": "2362",
            "name()": "infinite",
            "owner()": "2412",
            "ownerOf(uint256)": "infinite",
            "payToBuy(uint256)": "infinite",
            "proxiableUUID()": "infinite",
            "removeMultipleReviewedListByindices(uint256[],string[])": "infinite",
            "removeReviewedListByIndex(uint256,string)": "infinite",
            "renounceOwnership()": "infinite",
            "royalityFeeRate()": "2448",
            "safeTransferFrom(address,address,uint256)": "infinite",
            "safeTransferFrom(address,address,uint256,bytes)": "infinite",
            "setApprovalForAll(address,bool)": "infinite",
            "submitTobeReviewedList(string,string,string,uint256)": "infinite",
            "supply()": "2363",
            "supportsInterface(bytes4)": "infinite",
            "symbol()": "infinite",
            "tokenByIndex(uint256)": "infinite",
            "tokenOfOwnerByIndex(address,uint256)": "infinite",
            "tokenURI(uint256)": "infinite",
            "totalSupply()": "infinite",
            "totalTx()": "2406",
            "transferFrom(address,address,uint256)": "infinite",
            "transferOwnership(address)": "28509",
            "upgradeToAndCall(address,bytes)": "infinite",
            "withdrawEth(uint256)": "infinite"
        },
        "internal": {
            "_authorizeUpgrade(address)": "infinite",
            "_payToMint(address,string memory,string memory,string memory,uint256)": "infinite",
            "_removeReviewedListByIndex(uint256,string memory)": "infinite",
            "payTo(address,uint256)": "infinite"
        }
    }
}